{
  "contractName": "ItemData",
  "abi": [
    {
      "inputs": [],
      "payable": false,
      "stateMutability": "nonpayable",
      "type": "constructor"
    },
    {
      "anonymous": false,
      "inputs": [
        {
          "indexed": false,
          "internalType": "uint256",
          "name": "_itemId",
          "type": "uint256"
        },
        {
          "indexed": true,
          "internalType": "uint256",
          "name": "_bidAmt",
          "type": "uint256"
        }
      ],
      "name": "BidEvent",
      "type": "event"
    },
    {
      "constant": true,
      "inputs": [
        {
          "internalType": "uint256",
          "name": "",
          "type": "uint256"
        }
      ],
      "name": "arrayForItems",
      "outputs": [
        {
          "internalType": "uint256",
          "name": "",
          "type": "uint256"
        }
      ],
      "payable": false,
      "stateMutability": "view",
      "type": "function"
    },
    {
      "constant": true,
      "inputs": [
        {
          "internalType": "uint256",
          "name": "",
          "type": "uint256"
        }
      ],
      "name": "highestBidders",
      "outputs": [
        {
          "internalType": "address",
          "name": "",
          "type": "address"
        }
      ],
      "payable": false,
      "stateMutability": "view",
      "type": "function"
    },
    {
      "constant": true,
      "inputs": [],
      "name": "itemId",
      "outputs": [
        {
          "internalType": "uint256",
          "name": "",
          "type": "uint256"
        }
      ],
      "payable": false,
      "stateMutability": "view",
      "type": "function"
    },
    {
      "constant": true,
      "inputs": [
        {
          "internalType": "uint256",
          "name": "",
          "type": "uint256"
        }
      ],
      "name": "items",
      "outputs": [
        {
          "internalType": "string",
          "name": "item_name",
          "type": "string"
        },
        {
          "internalType": "string",
          "name": "item_desc",
          "type": "string"
        },
        {
          "internalType": "uint256",
          "name": "base_price",
          "type": "uint256"
        },
        {
          "internalType": "uint256",
          "name": "min_increment",
          "type": "uint256"
        },
        {
          "internalType": "uint256",
          "name": "auction_price",
          "type": "uint256"
        }
      ],
      "payable": false,
      "stateMutability": "view",
      "type": "function"
    },
    {
      "constant": true,
      "inputs": [],
      "name": "getItemCount",
      "outputs": [
        {
          "internalType": "uint256",
          "name": "",
          "type": "uint256"
        }
      ],
      "payable": false,
      "stateMutability": "pure",
      "type": "function"
    },
    {
      "constant": true,
      "inputs": [
        {
          "internalType": "uint256",
          "name": "_itemId",
          "type": "uint256"
        }
      ],
      "name": "getItemName",
      "outputs": [
        {
          "internalType": "string",
          "name": "",
          "type": "string"
        }
      ],
      "payable": false,
      "stateMutability": "view",
      "type": "function"
    },
    {
      "constant": true,
      "inputs": [
        {
          "internalType": "uint256",
          "name": "_itemId",
          "type": "uint256"
        }
      ],
      "name": "getItemDesc",
      "outputs": [
        {
          "internalType": "string",
          "name": "",
          "type": "string"
        }
      ],
      "payable": false,
      "stateMutability": "view",
      "type": "function"
    },
    {
      "constant": true,
      "inputs": [
        {
          "internalType": "uint256",
          "name": "_itemId",
          "type": "uint256"
        }
      ],
      "name": "getItemPrice",
      "outputs": [
        {
          "internalType": "uint256",
          "name": "",
          "type": "uint256"
        }
      ],
      "payable": false,
      "stateMutability": "view",
      "type": "function"
    },
    {
      "constant": true,
      "inputs": [
        {
          "internalType": "uint256",
          "name": "_itemId",
          "type": "uint256"
        }
      ],
      "name": "getItemIncrement",
      "outputs": [
        {
          "internalType": "uint256",
          "name": "",
          "type": "uint256"
        }
      ],
      "payable": false,
      "stateMutability": "view",
      "type": "function"
    },
    {
      "constant": true,
      "inputs": [
        {
          "internalType": "uint256",
          "name": "_itemId",
          "type": "uint256"
        }
      ],
      "name": "getPercentIncrease",
      "outputs": [
        {
          "internalType": "uint256",
          "name": "",
          "type": "uint256"
        }
      ],
      "payable": false,
      "stateMutability": "view",
      "type": "function"
    },
    {
      "constant": true,
      "inputs": [
        {
          "internalType": "uint256",
          "name": "num",
          "type": "uint256"
        }
      ],
      "name": "getArrayOfNumericalInformation",
      "outputs": [
        {
          "internalType": "uint256[4]",
          "name": "",
          "type": "uint256[4]"
        }
      ],
      "payable": false,
      "stateMutability": "view",
      "type": "function"
    },
    {
      "constant": true,
      "inputs": [],
      "name": "getArrayOfPrices",
      "outputs": [
        {
          "internalType": "uint256[4]",
          "name": "",
          "type": "uint256[4]"
        }
      ],
      "payable": false,
      "stateMutability": "view",
      "type": "function"
    },
    {
      "constant": true,
      "inputs": [],
      "name": "getArrayOfIncreases",
      "outputs": [
        {
          "internalType": "uint256[4]",
          "name": "",
          "type": "uint256[4]"
        }
      ],
      "payable": false,
      "stateMutability": "view",
      "type": "function"
    },
    {
      "constant": true,
      "inputs": [],
      "name": "getArrayOfIncrements",
      "outputs": [
        {
          "internalType": "uint256[4]",
          "name": "",
          "type": "uint256[4]"
        }
      ],
      "payable": false,
      "stateMutability": "view",
      "type": "function"
    },
    {
      "constant": true,
      "inputs": [],
      "name": "getHighestBidders",
      "outputs": [
        {
          "internalType": "address[4]",
          "name": "",
          "type": "address[4]"
        }
      ],
      "payable": false,
      "stateMutability": "view",
      "type": "function"
    },
    {
      "constant": false,
      "inputs": [
        {
          "internalType": "uint256",
          "name": "_itemId",
          "type": "uint256"
        },
        {
          "internalType": "uint256",
          "name": "_bidAmt",
          "type": "uint256"
        }
      ],
      "name": "placeBid",
      "outputs": [
        {
          "internalType": "uint256",
          "name": "",
          "type": "uint256"
        }
      ],
      "payable": false,
      "stateMutability": "nonpayable",
      "type": "function"
    },
    {
      "constant": true,
      "inputs": [
        {
          "internalType": "uint256",
          "name": "_itemId",
          "type": "uint256"
        },
        {
          "internalType": "uint256",
          "name": "_bidAmt",
          "type": "uint256"
        }
      ],
      "name": "check_bid",
      "outputs": [
        {
          "internalType": "bool",
          "name": "",
          "type": "bool"
        }
      ],
      "payable": false,
      "stateMutability": "view",
      "type": "function"
    },
    {
      "constant": true,
      "inputs": [
        {
          "internalType": "uint256",
          "name": "_itemId",
          "type": "uint256"
        },
        {
          "internalType": "uint256",
          "name": "_bidAmt",
          "type": "uint256"
        }
      ],
      "name": "check_increment",
      "outputs": [
        {
          "internalType": "bool",
          "name": "",
          "type": "bool"
        }
      ],
      "payable": false,
      "stateMutability": "view",
      "type": "function"
    },
    {
      "constant": true,
      "inputs": [
        {
          "internalType": "uint256",
          "name": "_itemId",
          "type": "uint256"
        },
        {
          "internalType": "address",
          "name": "person_wallet",
          "type": "address"
        }
      ],
      "name": "check_highest_bidder",
      "outputs": [
        {
          "internalType": "bool",
          "name": "",
          "type": "bool"
        }
      ],
      "payable": false,
      "stateMutability": "view",
      "type": "function"
    }
  ],
  "bytecode": "0x608060405260006004553480156200001657600080fd5b506200007d6040518060400160405280600481526020017f56617365000000000000000000000000000000000000000000000000000000008152506040518060600160405280603f815260200162001b13603f9139601460026014620001b760201b60201c565b620000e36040518060400160405280600981526020017f4d6f6e61204c697361000000000000000000000000000000000000000000000081525060405180608001604052806049815260200162001a846049913960c8601460c8620001b760201b60201c565b620001496040518060400160405280600c81526020017f537461727279204e69676874000000000000000000000000000000000000000081525060405180608001604052806044815260200162001b5260449139609660236096620001b760201b60201c565b620001b16040518060400160405280601a81526020017f4c696265727479204c656164696e67207468652050656f706c6500000000000081525060405180608001604052806046815260200162001acd604691396103e860646103e8620001b760201b60201c565b6200036f565b6040518060a0016040528086815260200185815260200184815260200183815260200182815250600560006004548152602001908152602001600020600082015181600001908051906020019062000211929190620002c0565b50602082015181600101908051906020019062000230929190620002c0565b50604082015181600201556060820151816003015560808201518160040155905050600060066000600454815260200190815260200160002060006101000a81548173ffffffffffffffffffffffffffffffffffffffff021916908373ffffffffffffffffffffffffffffffffffffffff1602179055506004600081548092919060010191905055505050505050565b828054600181600116156101000203166002900490600052602060002090601f016020900481019282601f106200030357805160ff191683800117855562000334565b8280016001018555821562000334579182015b828111156200033357825182559160200191906001019062000316565b5b50905062000343919062000347565b5090565b6200036c91905b80821115620003685760008160009055506001016200034e565b5090565b90565b611705806200037f6000396000f3fe608060405234801561001057600080fd5b50600436106101215760003560e01c806377484aae116100ad578063ca6158cb11610071578063ca6158cb14610632578063d945db0b14610650578063d9561a9114610692578063e1080ead14610739578063eebcd731146107e057610121565b806377484aae146103e85780637749cf2314610456578063a14acf0014610474578063acad0763146104c4578063bfb231d21461050a57610121565b806349a027f6116100f457806349a027f61461026c5780634c4df870146102d257806357c90de5146103145780635d45a7a1146103605780635d8d55c9146103a257610121565b806319cb45e6146101265780631c6076bb1461016c5780631e9c6386146101bc5780632206aa7f14610202575b600080fd5b61012e610822565b6040518082600460200280838360005b8381101561015957808201518184015260208101905061013e565b5050505090500191505060405180910390f35b6101a26004803603604081101561018257600080fd5b8101908080359060200190929190803590602001909291905050506108c2565b604051808215151515815260200191505060405180910390f35b6101c46108f6565b6040518082600460200280838360005b838110156101ef5780820151818401526020810190506101d4565b5050505090500191505060405180910390f35b61022e6004803603602081101561021857600080fd5b81019080803590602001909291905050506109a1565b6040518082600460200280838360005b8381101561025957808201518184015260208101905061023e565b5050505090500191505060405180910390f35b6102b86004803603604081101561028257600080fd5b8101908080359060200190929190803573ffffffffffffffffffffffffffffffffffffffff169060200190929190505050610be2565b604051808215151515815260200191505060405180910390f35b6102fe600480360360208110156102e857600080fd5b8101908080359060200190929190505050610c5f565b6040518082815260200191505060405180910390f35b61034a6004803603604081101561032a57600080fd5b810190808035906020019092919080359060200190929190505050610d01565b6040518082815260200191505060405180910390f35b61038c6004803603602081101561037657600080fd5b8101908080359060200190929190505050610f50565b6040518082815260200191505060405180910390f35b6103aa610ff2565b6040518082600460200280838360005b838110156103d55780820151818401526020810190506103ba565b5050505090500191505060405180910390f35b610414600480360360208110156103fe57600080fd5b8101908080359060200190929190505050611092565b604051808273ffffffffffffffffffffffffffffffffffffffff1673ffffffffffffffffffffffffffffffffffffffff16815260200191505060405180910390f35b61045e6110c5565b6040518082815260200191505060405180910390f35b6104aa6004803603604081101561048a57600080fd5b8101908080359060200190929190803590602001909291905050506110ce565b604051808215151515815260200191505060405180910390f35b6104cc61111f565b6040518082600460200280838360005b838110156104f75780820151818401526020810190506104dc565b5050505090500191505060405180910390f35b6105366004803603602081101561052057600080fd5b81019080803590602001909291905050506111bf565b604051808060200180602001868152602001858152602001848152602001838103835288818151815260200191508051906020019080838360005b8381101561058c578082015181840152602081019050610571565b50505050905090810190601f1680156105b95780820380516001836020036101000a031916815260200191505b50838103825287818151815260200191508051906020019080838360005b838110156105f25780820151818401526020810190506105d7565b50505050905090810190601f16801561061f5780820380516001836020036101000a031916815260200191505b5097505050505050505060405180910390f35b61063a611325565b6040518082815260200191505060405180910390f35b61067c6004803603602081101561066657600080fd5b810190808035906020019092919050505061132b565b6040518082815260200191505060405180910390f35b6106be600480360360208110156106a857600080fd5b8101908080359060200190929190505050611343565b6040518080602001828103825283818151815260200191508051906020019080838360005b838110156106fe5780820151818401526020810190506106e3565b50505050905090810190601f16801561072b5780820380516001836020036101000a031916815260200191505b509250505060405180910390f35b6107656004803603602081101561074f57600080fd5b810190808035906020019092919050505061147e565b6040518080602001828103825283818151815260200191508051906020019080838360005b838110156107a557808201518184015260208101905061078a565b50505050905090810190601f1680156107d25780820380516001836020036101000a031916815260200191505b509250505060405180910390f35b61080c600480360360208110156107f657600080fd5b81019080803590602001909291905050506115b9565b6040518082815260200191505060405180910390f35b61082a61160e565b3073ffffffffffffffffffffffffffffffffffffffff16632206aa7f60036040518263ffffffff1660e01b81526004018082815260200191505060806040518083038186803b15801561087c57600080fd5b505afa158015610890573d6000803e3d6000fd5b505050506040513d601f19601f8201168201806040525060808110156108b557600080fd5b8101908091905050905090565b600060056000848152602001908152602001600020600401548211156108eb57600190506108f0565b600090505b92915050565b6108fe611630565b610906611630565b60008090505b6004811015610999576006600082815260200190815260200160002060009054906101000a900473ffffffffffffffffffffffffffffffffffffffff1682826004811061095557fe5b602002019073ffffffffffffffffffffffffffffffffffffffff16908173ffffffffffffffffffffffffffffffffffffffff1681525050808060010191505061090c565b508091505090565b6109a961160e565b6109b161160e565b60008090505b6004811015610bd8576001841415610a6f573073ffffffffffffffffffffffffffffffffffffffff16634c4df870826040518263ffffffff1660e01b81526004018082815260200191505060206040518083038186803b158015610a1a57600080fd5b505afa158015610a2e573d6000803e3d6000fd5b505050506040513d6020811015610a4457600080fd5b8101908080519060200190929190505050828260048110610a6157fe5b602002018181525050610bcb565b6002841415610b1e573073ffffffffffffffffffffffffffffffffffffffff1663eebcd731826040518263ffffffff1660e01b81526004018082815260200191505060206040518083038186803b158015610ac957600080fd5b505afa158015610add573d6000803e3d6000fd5b505050506040513d6020811015610af357600080fd5b8101908080519060200190929190505050828260048110610b1057fe5b602002018181525050610bca565b6003841415610bc9573073ffffffffffffffffffffffffffffffffffffffff16635d45a7a1826040518263ffffffff1660e01b81526004018082815260200191505060206040518083038186803b158015610b7857600080fd5b505afa158015610b8c573d6000803e3d6000fd5b505050506040513d6020811015610ba257600080fd5b8101908080519060200190929190505050828260048110610bbf57fe5b6020020181815250505b5b5b80806001019150506109b7565b5080915050919050565b60006006600084815260200190815260200160002060009054906101000a900473ffffffffffffffffffffffffffffffffffffffff1673ffffffffffffffffffffffffffffffffffffffff168273ffffffffffffffffffffffffffffffffffffffff161415610c545760009050610c59565b600190505b92915050565b6000808210158015610c715750600482105b610ce3576040517f08c379a00000000000000000000000000000000000000000000000000000000081526004018080602001828103825260138152602001807f4974656d20646f6573206e6f742065786973740000000000000000000000000081525060200191505060405180910390fd5b60056000838152602001908152602001600020600401549050919050565b6000808310158015610d135750600483105b610d85576040517f08c379a000000000000000000000000000000000000000000000000000000000815260040180806020018281038252601a8152602001807f42696464696e67206f6e20616e20696e76616c6964206974656d00000000000081525060200191505060405180910390fd5b610d8f83836108c2565b610de4576040517f08c379a000000000000000000000000000000000000000000000000000000000815260040180806020018281038252602e8152602001806116a3602e913960400191505060405180910390fd5b610dee83836110ce565b610e43576040517f08c379a000000000000000000000000000000000000000000000000000000000815260040180806020018281038252602c815260200180611653602c913960400191505060405180910390fd5b610e4d8333610be2565b610ea2576040517f08c379a000000000000000000000000000000000000000000000000000000000815260040180806020018281038252602481526020018061167f6024913960400191505060405180910390fd5b816005600085815260200190815260200160002060040181905550336006600085815260200190815260200160002060006101000a81548173ffffffffffffffffffffffffffffffffffffffff021916908373ffffffffffffffffffffffffffffffffffffffff160217905550817f7b0140573d213f42228ee5bf51487a8b9a9e85e0f8d61506811f7af74afcddc8846040518082815260200191505060405180910390a282905092915050565b6000808210158015610f625750600482105b610fd4576040517f08c379a00000000000000000000000000000000000000000000000000000000081526004018080602001828103825260138152602001807f4974656d20646f6573206e6f742065786973740000000000000000000000000081525060200191505060405180910390fd5b60056000838152602001908152602001600020600301549050919050565b610ffa61160e565b3073ffffffffffffffffffffffffffffffffffffffff16632206aa7f60016040518263ffffffff1660e01b81526004018082815260200191505060806040518083038186803b15801561104c57600080fd5b505afa158015611060573d6000803e3d6000fd5b505050506040513d601f19601f82011682018060405250608081101561108557600080fd5b8101908091905050905090565b60066020528060005260406000206000915054906101000a900473ffffffffffffffffffffffffffffffffffffffff1681565b60006004905090565b60008060056000858152602001908152602001600020600401548303905060056000858152602001908152602001600020600301548110611113576001915050611119565b60009150505b92915050565b61112761160e565b3073ffffffffffffffffffffffffffffffffffffffff16632206aa7f60026040518263ffffffff1660e01b81526004018082815260200191505060806040518083038186803b15801561117957600080fd5b505afa15801561118d573d6000803e3d6000fd5b505050506040513d601f19601f8201168201806040525060808110156111b257600080fd5b8101908091905050905090565b6005602052806000526040600020600091509050806000018054600181600116156101000203166002900480601f01602080910402602001604051908101604052809291908181526020018280546001816001161561010002031660029004801561126b5780601f106112405761010080835404028352916020019161126b565b820191906000526020600020905b81548152906001019060200180831161124e57829003601f168201915b505050505090806001018054600181600116156101000203166002900480601f0160208091040260200160405190810160405280929190818152602001828054600181600116156101000203166002900480156113095780601f106112de57610100808354040283529160200191611309565b820191906000526020600020905b8154815290600101906020018083116112ec57829003601f168201915b5050505050908060020154908060030154908060040154905085565b60045481565b6000816004811061133857fe5b016000915090505481565b6060600082101580156113565750600482105b6113c8576040517f08c379a00000000000000000000000000000000000000000000000000000000081526004018080602001828103825260138152602001807f4974656d20646f6573206e6f742065786973740000000000000000000000000081525060200191505060405180910390fd5b600560008381526020019081526020016000206000018054600181600116156101000203166002900480601f0160208091040260200160405190810160405280929190818152602001828054600181600116156101000203166002900480156114725780601f1061144757610100808354040283529160200191611472565b820191906000526020600020905b81548152906001019060200180831161145557829003601f168201915b50505050509050919050565b6060600082101580156114915750600482105b611503576040517f08c379a00000000000000000000000000000000000000000000000000000000081526004018080602001828103825260138152602001807f4974656d20646f6573206e6f742065786973740000000000000000000000000081525060200191505060405180910390fd5b600560008381526020019081526020016000206001018054600181600116156101000203166002900480601f0160208091040260200160405190810160405280929190818152602001828054600181600116156101000203166002900480156115ad5780601f10611582576101008083540402835291602001916115ad565b820191906000526020600020905b81548152906001019060200180831161159057829003601f168201915b50505050509050919050565b600080600560008481526020019081526020016000206004015490506000600560008581526020019081526020016000206002015490506000816064838503028161160057fe5b049050809350505050919050565b6040518060800160405280600490602082028038833980820191505090505090565b604051806080016040528060049060208202803883398082019150509050509056fe426964206973206e6f7420656e6f756768206261736564206f6e206d696e696d756d20696e6372656d656e74506572736f6e2062696464696e6720697320746865206869676865737420626964646572426964206973206c6f776572206f7220657175616c20746f207468652068696768657374206269642076616c7565a265627a7a72315820be6633e59b8f310dea88260c1a5e35a792cef90f127ff4f15a3a2a20598e728a64736f6c6343000510003246616d6f7573207061696e74696e6720627920746865204974616c69616e206172746973742c204c656f6e6172646f2064612056696e63692e204a7573742062656175746966756c2144656c6163726f6978207061696e74696e6720636f6d6d656d6f726174696e6720746865204a756c79205265766f6c7574696f6e206f66203138333020696e204672616e6365313874682043656e74757279206c6f7374206d61737465727069656365207769746820626c75652d616e642d776869746520666c6f72616c2064657369676e412056616e20476f676820636c617373696320646570696374696e6720612062656175746966756c20737461727279206e69676874207573696e672070617374656c732e",
  "source": "pragma solidity ^0.5.0;\r\n\r\ncontract ItemData {\r\n\r\n    // Create a structure to store information about an item in the auction house\r\n\tstruct Item{\t\t\t\r\n\t\tstring item_name; // name\r\n\t\tstring item_desc; // description\r\n\t\tuint base_price; // start price\r\n\t\tuint min_increment; // minimum increment for a bid\r\n\t\tuint auction_price;  // current price of item\r\n\t}\r\n\t\r\n\r\n    // Declaring global variables for the contract, we assume 4 as the number of items, this number can be adjusted\r\n\tuint constant itemCount = 4;\r\n    uint[itemCount] public arrayForItems;\r\n\tuint public itemId = 0;\r\n\t\r\n\r\n    // Creating hash tables for storing information\r\n    mapping(uint => Item) public items; // item hash table\r\n\tmapping(uint => address) public highestBidders; // highest bidders hash table\r\n\r\n\r\n\t// Declaring events which help us use ethereum's logging facility\r\n\tevent BidEvent(uint _itemId, uint indexed _bidAmt);\r\n\r\n\r\n\t// Constructor\r\n\tconstructor() public {\t\r\n\t\taddItem(\"Vase\", \"18th Century lost masterpiece with blue-and-white floral design\", 20, 2, 20);\r\n\t\taddItem(\"Mona Lisa\", \"Famous painting by the Italian artist, Leonardo da Vinci. Just beautiful!\", 200, 20, 200);\r\n\t\taddItem(\"Starry Night\", \"A Van Gogh classic depicting a beautiful starry night using pastels.\", 150, 35, 150);\r\n\t\taddItem(\"Liberty Leading the People\", \"Delacroix painting commemorating the July Revolution of 1830 in France\", 1000, 100, 1000);\r\n\t}\r\n\t\r\n\r\n    // Function to add items and highest bidders, incrementing itemCount (itemCount starts at 0)\r\n\tfunction addItem (string memory _name, string memory _desc, uint _baseValue, uint _increment, uint _startPrice) private { \t\r\n\t\titems[itemId] = Item(_name, _desc, _baseValue, _increment,_startPrice);\r\n\t\thighestBidders[itemId] = address(0);\r\n\t\titemId ++;\r\n\t}\r\n\r\n\r\n\t// Function to get item count\r\n\tfunction getItemCount () public pure returns (uint) {\r\n\t\treturn 4;\r\n\t}\r\n\t\r\n\r\n\t// Function to get the name of an item using its item id\r\n\tfunction getItemName (uint _itemId) public view returns (string memory) {\r\n\t\trequire(_itemId >= 0 && _itemId < itemCount, \"Item does not exist\"); // the item id must be greater than 0 but less or equal to the total count\r\n\r\n\t\treturn items[_itemId].item_name;\r\n\t}\r\n\r\n    function getItemDesc (uint _itemId) public view returns (string memory) {\r\n\t\trequire(_itemId >= 0 && _itemId < itemCount, \"Item does not exist\"); // the item id must be greater than 0 but less or equal to the total count\r\n\r\n\t\treturn items[_itemId].item_desc;\r\n\t}\r\n\r\n\t// Function to get the highest current price of an item using its item id\r\n\tfunction getItemPrice (uint _itemId) public view returns (uint) {\r\n\t\trequire(_itemId >= 0 && _itemId < itemCount, \"Item does not exist\"); // the item id must be greater than 0 but less or equal to the total count\r\n\r\n\t\treturn items[_itemId].auction_price;\r\n\t}\r\n\t\r\n\r\n\t// Function to get the min_increment of an item using its item id\r\n\tfunction getItemIncrement (uint _itemId) public view returns (uint) {\r\n\t\trequire(_itemId >= 0 && _itemId < itemCount, \"Item does not exist\"); // the item id must be greater than 0 but less or equal to the total count\r\n\r\n\t\treturn items[_itemId].min_increment;\r\n\t}\r\n\t\r\n\r\n\t// Function to get percent increase in value over original listing price\r\n\tfunction getPercentIncrease (uint _itemId) public view returns (uint) {\r\n\t\tuint auctionPrice = items[_itemId].auction_price;\r\n\t\tuint basePrice = items[_itemId].base_price;\r\n\t\tuint percentIncrease = (auctionPrice - basePrice)*100/basePrice;\r\n\r\n\t\treturn percentIncrease;\r\n\t}\r\n\t\r\n\r\n\t// Function to get numerical information for all items in the auction as an array\r\n\tfunction getArrayOfNumericalInformation (uint num) public view returns (uint[itemCount] memory) {\r\n\t\tuint[itemCount] memory arrayOfNumbers;\r\n\r\n\t\tfor (uint i=0;i < itemCount; i++) {\r\n\t\t\tif (num == 1) {\r\n\t\t\t\tarrayOfNumbers[i] = this.getItemPrice(i);\r\n\t\t\t} else if (num == 2) {\r\n\t\t\t\tarrayOfNumbers[i] = this.getPercentIncrease(i);\r\n\t\t\t} else if (num == 3) {\r\n\t\t\t\tarrayOfNumbers[i] = this.getItemIncrement(i);\r\n\t\t\t}\r\n\t\t}\r\n\r\n\t\treturn arrayOfNumbers;\r\n\t}\r\n\t\r\n\r\n\t// Function to get array of prices of all items in auction as an array\r\n\tfunction getArrayOfPrices () public view returns (uint[itemCount] memory) {\r\n\t\treturn this.getArrayOfNumericalInformation(1);\r\n\t}\r\n\r\n\r\n\t// Function to get array of increase in percentages of all items in auction as an array\r\n\tfunction getArrayOfIncreases () public view returns (uint[itemCount] memory) {\r\n\t\treturn this.getArrayOfNumericalInformation(2);\r\n\t}\r\n\r\n\r\n\t// Function to get array of increments of all items in auction as an array\r\n\tfunction getArrayOfIncrements () public view returns (uint[itemCount] memory) {\r\n\t\treturn this.getArrayOfNumericalInformation(3);\r\n\t}\r\n\r\n\r\n\t// Function to get the array of highest bidders\r\n\tfunction getHighestBidders () public view returns (address[itemCount] memory) {\r\n\t\taddress[itemCount] memory arrayOfBidders;\r\n\r\n\t\tfor (uint i=0;i < itemCount; i++) {\r\n\t\t\tarrayOfBidders[i] = highestBidders[i];\r\n\t\t}\r\n\r\n\t\treturn arrayOfBidders;\r\n\r\n\t}\r\n\t\r\n\t\r\n    // Function to place a bid\r\n    function placeBid (uint _itemId, uint _bidAmt) public returns (uint) {\r\n        // Requirements \r\n\t\trequire(_itemId >= 0 && _itemId < itemCount, \"Bidding on an invalid item\"); // the item id must be greater than 0 but less than the total count\r\n\t\t\r\n\t\trequire(check_bid (_itemId, _bidAmt),\"Bid is lower or equal to the highest bid value\"); // the bid should be higher or equal to the current\r\n\t\t\r\n\t\trequire(check_increment (_itemId, _bidAmt),\"Bid is not enough based on minimum increment\"); // make sure that the increment is greater than or equal to the minimum increment for the auction item\r\n\r\n\t\trequire(check_highest_bidder(_itemId, msg.sender), \"Person bidding is the highest bidder\"); // make sure that person bidding isn't already highest bidder\r\n\r\n        items[_itemId].auction_price = _bidAmt; // replace the current price with the new bid amount\r\n\t\thighestBidders[_itemId] = msg.sender; // replace the highest bidder for that item id with the new highest bidder\r\n\r\n\t\temit BidEvent(_itemId, _bidAmt); // logs the bid event on ethereum EVM\r\n\r\n        return _itemId; // return the item back \t\r\n\r\n    }\r\n\r\n\r\n    // Function to check if the bid is greater than highest bid\r\n\tfunction check_bid (uint _itemId, uint _bidAmt) public view returns (bool) {\r\n\t\tif (_bidAmt > items[_itemId].auction_price) return true;\r\n\t\telse return false;\r\n\t}\r\n\t\r\n\t\r\n    // Function to check if the difference is greater to minimum increment value\r\n\tfunction check_increment (uint _itemId, uint _bidAmt) public view returns (bool) {\r\n\t\tuint diff;\r\n\r\n\t\tdiff = _bidAmt - items[_itemId].auction_price;\r\n\t\tif (diff >= items[_itemId].min_increment) return true;\r\n\t\telse return false;\r\n\t}\r\n\t\r\n\r\n\t// Function to check if person bidding is the highest bidder\r\n\tfunction check_highest_bidder (uint _itemId, address person_wallet) public view returns (bool) {\r\n\t\tif (person_wallet == highestBidders[_itemId]) {\r\n\t\t\treturn false;\r\n\t\t} else {\r\n\t\t\treturn true;\r\n\t\t}\r\n\t}\r\n\r\n}",
  "sourcePath": "C:\\Users\\Dev Prajapat\\Documents\\Git projects\\BlockChain-Auctioning-Web-App\\src\\contracts\\ItemData.sol",
  "compiler": {
    "name": "solc",
    "version": "0.5.16+commit.9c3226ce.Emscripten.clang"
  },
  "schemaVersion": "3.0.23",
  "updatedAt": "2022-05-22T15:43:35.639Z",
  "networkType": "ethereum",
  "devdoc": {
    "methods": {}
  },
  "userdoc": {
    "methods": {}
  }
}